:020000040800F2
:1000000000500020D9280008D9270008DF27000861
:10001000E5270008EB270008F12700080000000092
:10002000000000000000000000000000F7270008AA
:1000300003280008000000000F2800081B28000803
:100040002129000821290008212900082129000868
:100050002129000821290008212900082129000858
:100060002129000821290008212900082129000848
:100070002129000821290008212900082129000838
:100080002129000821290008212900082129000828
:100090002129000821290008212900082129000818
:1000A0002129000821290008212900082129000808
:1000B00029280008212900082129000821290008F1
:1000C00021290008212900082129000821290008E8
:1000D0002129000821290008212900083D280008BD
:1000E00051280008212900082129000800000000EB
:1000F0000000000000000000000000000000000000
:0C01000000000000000000005FF808F1A3
:10010C0010B5054C237833B9044B13B10448AFF345
:10011C0000800123237010BDE000002000000000CF
:10012C00C861000808B5034B1BB103490348AFF382
:10013C00008008BD00000000E4000020C861000839
:10014C0010F8012B11F8013B012A28BF9A42F7D075
:10015C00D01A7047034613F8012B002AFBD1181A4A
:10016C000138704780B598B000AF7860396001F005
:10017C0013F95D495D4801F026FB5D495D4801F0CE
:10018C0022FB0023FB650AE059495B4801F01BFB8D
:10019C004FF47A7002F022FCFB6D0133FB65FB6DB2
:1001AC00042BF1DD5049554801F00DFB00BF4E49C1
:1001BC00534801F015FC0346002BF8D04C4951482C
:1001CC0001F001FB4849504801F0FDFA00BF4649D7
:1001DC004E4801F005FC0346002BF8D044494C482E
:1001EC0001F0F1FA42494B4801F0EDFA07F1080031
:1001FC003B687A68484905F037FC07F108033A492F
:10020C00184601F0E0FA00BF3749444801F0E8FB1A
:10021C000346002BF8D007F108037A6840491846CA
:10022C0005F022FC07F108033149184601F0CBFA1E
:10023C002D493C4801F0C7FA00BF2B493A4801F060
:10024C00CFFB0346002BF8D000BF274A374938486C
:10025C0001F042FB0346002BF7D000BF2249354882
:10026C0001F0BEFB0346002BF8D03048FFF772FFBD
:10027C000346BB65BB6D013B2C4A0021D15407F1F1
:10028C0008032A4A2C49184605F0EEFB07F108032F
:10029C001749184601F097FA1349284801F093FAC8
:1002AC0000BF1149264801F09BFB0346002BF8D0F8
:1002BC000F49244801F087FA0B49234801F083FACF
:1002CC0000BF09491B4801F08BFB0346002BF8D0FB
:1002DC0007491E4801F077FA05491D4801F073FAE9
:1002EC0000BF6037BD4680BD680A00201866000854
:1002FC00EC0900202466000830660008346600080B
:10030C003C660008486600085466000864660008ED
:10031C007C6600088C660008B0660008C866000899
:10032C00DC660008F0660008FC6600085C0900202A
:10033C000C67000810670008186700082867000899
:10034C003867000850670008606700087467000889
:10035C008867000880B598B000AF7860396078681D
:10036C00FFF7F8FE0346FB6507F10C00FB6D3A68DE
:10037C001A4905F079FB07F10C031949184601F0ED
:10038C0022FA00BF1649174801F02AFB0346002B3E
:10039C00F8D01349786801F016FA00BF10491248DA
:1003AC0001F01EFB0346002BF8D007F10C030F499C
:1003BC00184605F059FB07F10C030949184601F0E2
:1003CC0002FA00BF06490A4801F00AFB0346002B5B
:1003DC00F8D0012318466037BD4680BDA8670008D9
:1003EC00680A0020BC670008C0670008C8670008DE
:1003FC0010670008B0B5ADF5816D00AF3B1D1860FE
:10040C003B46196007F1080300221A6004334FF4CD
:10041C007F720021184605F035FA3B1D68491868B3
:10042C00FFF78EFE0346002B2CD1664B1A6807F1A2
:10043C0008031146184605F017FB07F10803184688
:10044C00FFF788FE03461A4607F1080313445E4A79
:10045C001D4614460FCC28606960AA60EB6003CC83
:10046C0028616961594B1A6807F10803114618464F
:10047C0005F01AFB3B4607F1080219681046FFF716
:10048C0069FF98E03B1D52491868FFF759FE034677
:10049C00002B2CD14B4B1A6807F108031146184658
:1004AC0005F0E2FA07F108031846FFF753FE03467E
:1004BC001A4607F108031344464A1D4614460FCC4E
:1004CC0028606960AA60EB6003CC286169613F4BCE
:1004DC001A6807F108031146184605F0E5FA3B4681
:1004EC0007F1080219681046FFF734FF63E03B1D63
:1004FC0039491868FFF724FE0346002B2CD1314BE9
:10050C001A6807F108031146184605F0ADFA07F111
:10051C0008031846FFF71EFE03461A4607F10803A8
:10052C0013442E4A1D4614460FCC28606960AA60FD
:10053C00EB6003CC28616961244B1A6807F108034E
:10054C001146184605F0B0FA3B4607F10802196847
:10055C001046FFF7FFFE2EE01A4B1A6807F108034E
:10056C001146184605F080FA1D4B1A6807F108036E
:10057C001146184605F098FA1A4B1A6807F1080349
:10058C001146184605F090FA174B1A6807F1080344
:10059C001146184605F088FA0C4B1A6807F1080347
:1005AC001146184605F080FA3B4607F10802196817
:1005BC001046FFF7CFFE00BF07F58167BD46B0BD03
:1005CC00D867000800000020E46700081000002035
:1005DC00FC67000808680008206800082C68000800
:1005EC0004000020080000200C00002080B592B010
:1005FC0000AF0023BB6007F10C033C22002118461E
:10060C0005F040F900BFFA1D264B0121264801F0E8
:10061C00ABF80346002BF6D0FB79303BDBB2FB7119
:10062C0000BF07F108031F4A1946204801F054F98E
:10063C000346002BF5D007F1080319461C4800F0BF
:10064C00F1FE0346012B05D1FB7919461848FFF73B
:10065C00D1FE22E007F108031946164800F0E2FE2D
:10066C000346012B05D1FB7919461248FFF7C2FE50
:10067C0013E007F1080319460F4800F0D3FE0346B8
:10068C00012B05D1FB7919460B48FFF7B3FE04E0AB
:10069C00FB7919460948FFF7ADFE00BF4837BD4648
:1006AC0080BD00BF680A0020446800084C68000840
:1006BC00D8670008FC670008206800085868000824
:1006CC0080B584B000AFF860B9607A60074AFB6807
:1006DC001360074ABB681360064A7B68136000F01E
:1006EC0055FE00BF1037BD4680BD00BF6000002026
:1006FC00480900204C09002080B5A0B000AFBD4BCC
:10070C001B680A2B00F2718101A252F823F000BF82
:10071C00F7090008630700080B080008B108000877
:10072C0057090008F7090008F7090008F70900083D
:10073C00F7090008F709000849070008AE4B1B68C9
:10074C00AE4A126819460120FFF7BAFF3221012088
:10075C0001F0B8FE67E100F04BFD00F097FDA84BEF
:10076C005B68012B39D1A74B1B68002B30DB01F0E8
:10077C000AFB0A2002F032F9A34B1B6807F1700048
:10078C00A24A102105F03CF90021012001F002FBE6
:10079C0007F17003184601F0E1FA9A4B1B6807F158
:1007AC0060009B4A102105F02BF90021022001F07A
:1007BC00F1FA07F16003184601F0D0FA914B1B686F
:1007CC00013B904A1360904B1B68013B8E4A1360AF
:1007DC004FF47A71012001F075FE8A4B1B68002BD7
:1007EC0080F20581884B1B6801338A4A12681946CE
:1007FC000220FFF765FF824B01229A60F7E000F0C0
:10080C00F7FC00F031FD7E4B9B68012B39D17D4B01
:10081C001B68002B35DB01F0B6FA0A2002F0DEF87B
:10082C00794B1B6807F15000784A102105F0E8F865
:10083C000021012001F0AEFA07F15003184601F037
:10084C008DFA704B1B6807F14000734A102105F0BC
:10085C00D7F80021022001F09DFA07F14003184659
:10086C0001F07CFA674B1B68013B664A1360664BD0
:10087C001B68013B644A13604FF47A71022001F04B
:10088C0021FE604B1B68002B80F2C8805B4B1B6801
:10089C00594A126819460320FFF712FF584B0122E0
:1008AC00DA60BBE000F0C2FC00F0D2FC544BDB6819
:1008BC00012B39D1534B1B68002B35DB01F063FA4C
:1008CC000A2002F08BF8504B1B6807F13000504A9D
:1008DC00102105F095F80021012001F05BFA07F1D9
:1008EC003003184601F03AFA464B1B6807F120001A
:1008FC00464A102105F084F80021022001F04AFA42
:10090C0007F12003184601F029FA3E4B1B68013B06
:10091C003C4A13603C4B1B68013B3B4A13604FF451
:10092C007A71032001F0CEFD374B1B68002B77DA70
:10093C00384B1968334B1B6801331A460420FFF7F8
:10094C00BFFE2F4B01221A616AE000F05DFC00F043
:10095C007FFC2B4B1B69012B37D12A4B1B68002BBF
:10096C0033DB01F010FA0A2002F038F8264B1B6832
:10097C0007F11000284A102105F042F8002101204F
:10098C0001F008FA07F11003184601F0E7F91D4BC6
:10099C001B6838461D4A102105F032F80021022050
:1009AC0001F0F8F93B46184601F0D8F9154B1B68D5
:1009BC00013B144A1360144B1B68013B124A136031
:1009CC004FF47A71042001F07DFD0F4B1B68002B56
:1009DC0028DA094B1B68094A126819460120FFF7EF
:1009EC006FFE074B01225A601CE000BF1BE000BFEA
:1009FC0019E000BF60000020640000206C000020A3
:100A0C00500B00204C090020480900205C680008AD
:100A1C0064680008680000207068000800BF02E0ED
:100A2C0000BF00E000BF00BF8037BD4680BD00BFE7
:100A3C0080B584B000AF786001F0C6FFF8600A4A58
:100A4C007B6852F82330FA68D31AC82B06D90649AA
:100A5C007B68FA6841F82320012300E00023184644
:100A6C001037BD4680BD00BFFC00002080B500AF34
:100A7C001D4B1B68012B0ED11C4B1B681A461C49C5
:100A8C001C4804F0F1FF03469AB24FF4FA7319496B
:100A9C00194804F061F8144B1B68022B0ED1174B4C
:100AAC001B681A461649134804F0DEFF03469AB237
:100ABC004FF4FA730F49104804F04EF80A4B1B68B8
:100ACC00032B0ED10F4B1B681A460F49094804F033
:100ADC00CBFF03469AB24FF4FA730649064804F06A
:100AEC003BF800BF80BD00BF44090020640000201B
:100AFC007C680008340A0020EC0900206800002003
:100B0C00906800086C000020A468000880B584B0D0
:100B1C0000AF094B1B683846084A102104F070FFDF
:100B2C000021012001F036F93B46184601F016F978
:100B3C0000BF1037BD4680BD64000020B8680008B7
:100B4C0080B584B000AF094B1B683846084A1021A9
:100B5C0004F056FF0021012001F01CF93B46184619
:100B6C0001F0FCF800BF1037BD4680BD6C000020C2
:100B7C00C468000880B584B000AF094B1B683846C8
:100B8C00084A102104F03CFF0021012001F002F979
:100B9C003B46184601F0E2F800BF1037BD4680BD59
:100BAC0068000020D468000880B500AFB84B1B6803
:100BBC000A2B00F2258201A252F823F00D10000836
:100BCC000D0C0008BD0E0008550D00080D10000896
:100BDC000D1000080D1000080D1000080D10000875
:100BEC000D100008F50B0008A94B01221A6000F04B
:100BFC00CDFBFFF73BFF0521052001F063FC06E26E
:100C0C0000F056FB022000F019FF0346002B05D024
:100C1C000220FFF70DFF0346002B04D100F0EAFD84
:100C2C000346012B18D101F0AEF80A2001F0D6FED4
:100C3C00984B1B685A1C984B83FB02135911D31702
:100C4C00CB1A642101FB03F3D31A924A1360FFF70A
:100C5C000DFFFFF75BFF76E0022000F009FF034673
:100C6C00002B05D00220FFF7E3FE0346002B04D136
:100C7C0000F0C0FD0346022B19D101F084F80A20C4
:100C8C0001F0ACFE834B1B6803F16302824B83FBC8
:100C9C0002135911D317CB1A642101FB03F3D31A96
:100CAC007C4A1360FFF7E2FEFFF730FF4BE00120B8
:100CBC0000F0C4FE0346002B05D00120FFF7B8FE60
:100CCC000346002B04D100F095FD0346032B0DD1F8
:100CDC006F4B03221A6000F059FBFFF7C7FE05218A
:100CEC00062001F0EFFBFFF72BFF2CE0002000F0BB
:100CFC00A5FE0346002B05D00020FFF799FE034606
:100D0C00002B05D100F076FD0346042B40F07A81D0
:100D1C00624B1B685F4A1360614B1B68614A13602E
:100D2C00614B1B68614A1360FFF7A0FE01F02BF8C2
:100D3C000A2001F053FEFFF7E9FE554B01221A6021
:100D4C0000F024FB5EE15DE100F0F8FA022000F017
:100D5C0075FE0346002B05D00220FFF769FE034603
:100D6C00002B04D100F046FD0346052B18D101F0F1
:100D7C000AF80A2001F032FE4C4B1B685A1C464BF9
:100D8C0083FB02135911D317CB1A642101FB03F314
:100D9C00D31A464A1360FFF769FEFFF7D1FE76E0DF
:100DAC00022000F065FE0346002B05D00220FFF761
:100DBC003FFE0346002B04D100F01CFD0346062B1E
:100DCC0019D100F0E0FF0A2001F008FE374B1B6838
:100DDC0003F16302304B83FB02135911D317CB1A67
:100DEC00642101FB03F3D31A304A1360FFF73EFE74
:100DFC00FFF7A6FE4BE0012000F020FE0346002B7F
:100E0C0005D00120FFF714FE0346002B04D100F09F
:100E1C00F1FC0346032B0DD11D4B02221A6000F08E
:100E2C00B5FAFFF723FE0521072001F04BFBFFF776
:100E3C00A1FE2CE0002000F001FE0346002B05D0A3
:100E4C000020FFF7F5FD0346002B05D100F0D2FC86
:100E5C000346042B40F0D880104B1B680D4A1360DE
:100E6C000F4B1B680F4A13600F4B1B680F4A136024
:100E7C00FFF7FCFD00F087FF0A2001F0AFFDFFF744
:100E8C005FFE034B03221A6000F080FABCE0BBE06B
:100E9C0044090020640000201F85EB511400002041
:100EAC0018000020680000201C0000206C000020AE
:100EBC0000F01CFA022000F0C1FD0346002B05D007
:100ECC000220FFF7B5FD0346002B04D100F092FC85
:100EDC000346072B18D100F056FF0A2001F07EFDC7
:100EEC004C4B1B685A1C4C4B83FB02135911D317E8
:100EFC00CB1A642101FB03F3D31A464A1360FFF7A4
:100F0C00B5FDFFF737FE7AE0022000F0B1FD034695
:100F1C00002B05D00220FFF78BFD0346002B04D1DC
:100F2C0000F068FC0346082B19D100F02CFF0A20B6
:100F3C0001F054FD374B1B6803F16302364B83FB06
:100F4C0002135911D317CB1A642101FB03F3D31AE3
:100F5C00304A1360FFF78AFDFFF70CFE4FE00120CB
:100F6C0000F06CFD0346002B05D00120FFF760FD5F
:100F7C000346002B04D100F03DFC0346032B12D199
:100F8C00264B01221A6000F001FAFFF76FFD0521D4
:100F9C00052001F097FA00F0F6FE322001F01EFD5C
:100FAC00FFF7B4FD2BE0002000F048FD0346002BBA
:100FBC0005D00020FFF73CFD0346002B04D100F0C8
:100FCC0019FC0346042B21D1154B1B68154A1360E1
:100FDC00154B1B680F4A1360144B1B68144A1360A3
:100FEC00FFF744FD00F0CFFE0A2001F0F7FCFFF7FD
:100FFC00C1FD0A4B02221A6000F0C8F906E005E0B8
:10100C0000BF04E000BF02E000BF00E000BF00BF73
:10101C0080BD00BF680000201F85EB5144090020F3
:10102C001400002064000020180000201C00002088
:10103C006C00002080B500AF012000F019FD0346C4
:10104C00002B04D100F0D6FB0346092B37D11D4BE6
:10105C001B68032B1FD000F096FE0A2001F0BEFC8B
:10106C00FFF754FD174B03221A601749174804F079
:10107C00FBFC03469AB24FF4FA731449144803F07C
:10108C006BFD144B0A221A60134B00221A60134B8F
:10109C0000221A6013E000F076FE0A2001F09EFC9C
:1010AC00084B0A221A600E49084804F0DDFC03467E
:1010BC009AB24FF4FA730549054803F04DFD00BF91
:1010CC0080BD00BF5C000020E4680008340A0020EA
:1010DC00EC09002044090020600000204009002099
:1010EC000069000880B500AF2B4B1B680A2B06D09B
:1010FC000A2B4EDC012B46D0032B47D049E0274B63
:10110C001A68274B1B681A44264B1B689A422BD033
:10111C00214B04221A602449244804F0A5FC034600
:10112C009AB24FF4FA732149214803F015FD00F0EF
:10113C002AFE0A2001F052FC0021012000F02AFEB8
:10114C001C4800F00BFE0021022000F023FE1A4880
:10115C0000F004FE194B00221A60194B00221A6091
:10116C00184B00221A600BE00B4B01221A60134B38
:10117C000A221A60124B00221A60124B00221A60CB
:10118C0000F022F806E0FFF7B7FA03E0FFF70CFDDA
:10119C0000E000BF00BF80BD5C00002068000020A4
:1011AC006C0000206400002018690008340A00203C
:1011BC00EC0900202869000838690008600000204C
:1011CC00400900204409002080B500AF00224FF4F4
:1011DC008261054801F081FF00224FF44071034801
:1011EC0001F07BFF00BF80BD000C014000080140F6
:1011FC0080B500AF01224FF48261024801F06DFF0F
:10120C0000BF80BD000C014080B500AF0022102152
:10121C00054801F062FF01224FF48061024801F0A1
:10122C005CFF00BF80BD00BF000C014080B500AF6B
:10123C0000224FF48061054801F04FFF012210217C
:10124C00024801F04AFF00BF80BD00BF000C014006
:10125C0080B500AF01224FF44071024801F03DFF10
:10126C0000BF80BD0008014080B500AF00224FF4E4
:10127C008071054801F031FF01224FF400710248E2
:10128C0001F02BFF00BF80BD0008014080B500AF0E
:10129C0000224FF40071054801F01FFF01224FF4AA
:1012AC008071024801F019FF00BF80BD00080140A9
:1012BC0080B500AF0A4B5B69012B0ED14FF4407126
:1012CC00084801F022FF4FF48261074801F01DFF2E
:1012DC004FF4FA71052001F0F5F800BF80BD00BF96
:1012EC00500B002000080140000C014080B500AFFD
:1012FC000F4BDB69012B19D1002210210D4801F095
:10130C00ECFE4FF480610B4801F0FFFE00224FF41D
:10131C008071094801F0E1FE4FF40071064801F0BC
:10132C00F4FE4FF4FA71072001F0CCF800BF80BD39
:10133C00500B0020000C01400008014080B500AFAC
:10134C000F4B9B69012B19D100224FF480610D4882
:10135C0001F0C3FE10210B4801F0D7FE00224FF420
:10136C000071094801F0B9FE4FF48071064801F094
:10137C00CCFE4FF4FA71062001F0A4F800BF80BD3A
:10138C00500B0020000C01400008014080B500AF5C
:10139C00FFF71AFF00BF80BD80B400AF174B184A8F
:1013AC001A60184B184A1A60184B194A1A60194BD4
:1013BC00194A1A60194B1B685A69184B1B6842F082
:1013CC0001025A61164B1B685A69154B1B6842F097
:1013DC0001025A61114B1B68DA68104B1B6842F012
:1013EC002002DA600E4B1B68DA680D4B1B6842F06A
:1013FC002002DA6000BFBD4680BC70477409002033
:10140C0008010020B009002010030020E80900208A
:10141C00180500207009002020070020680A002011
:10142C00EC09002080B586B000AF78603960786830
:10143C00FEF790FE0346FB603868FEF78BFE034612
:10144C00BB6000237B6100233B6102E03B690133FD
:10145C003B617B697A6813441A783B6939680B44A1
:10146C001B789A42F2D17B697A6813441A783B69EB
:10147C0039680B441B789A4211D105E07B69013322
:10148C007B613B6901333B617B697A6813441A7851
:10149C003B6939680B441B789A42EFD008E0002373
:1014AC007B613A69BB689A42CFDB4FF0FF3307E0B0
:1014BC007A69FB689A4201D1012301E04FF0FF33B6
:1014CC0018461837BD4680BD80B483B000AF786035
:1014DC007B681C4A934214D11B4B1B68D3F8002227
:1014EC00194B1B68D3F804329A4202D14FF0FF33E8
:1014FC0022E0154B1A68144B1B68D3F80432D35CEA
:10150C001AE07B68114A934214D1114B1B68D3F833
:10151C0000220F4B1B68D3F804329A4202D14FF0D1
:10152C00FF3309E00A4B1A68094B1B68D3F80432E5
:10153C00D35C01E04FF0FF3318460C37BD4680BC3E
:10154C00704700BF680A002074090020EC090020D5
:10155C00E809002080B485B000AF78607B68294A28
:10156C00934221D1284B1B68D3F80022264B1B68D1
:10157C00D3F804329A4202D14FF0FF333CE0224BB5
:10158C001A68214B1B68D3F80432D35CBB731E4B17
:10159C001B68D3F804325A1C1B4B1B68C2F308029D
:1015AC00C3F80422BB7B27E07B68184A934221D105
:1015BC00174B1B68D3F80022154B1B68D3F8043269
:1015CC009A4202D14FF0FF3316E0114B1A68104BC0
:1015DC001B68D3F80432D35CFB730D4B1B68D3F838
:1015EC0004325A1C0A4B1B68C2F30802C3F80422CB
:1015FC00FB7B01E04FF0FF3318461437BD4680BC2F
:10160C00704700BF680A002074090020EC09002014
:10161C00E809002080B485B000AF786039607B6841
:10162C00002B54DB3B682C4A934226D12B4B1B6876
:10163C00D3F800320133C3F30803BB6000BF274B60
:10164C001B68D3F80422BB689A42F8D0234B1A6863
:10165C00224B1B68D3F800327968C9B2D1541F4BA6
:10166C001B68BA68C3F800221B4B1B68DA681A4B5C
:10167C001B6842F08002DA6029E03B68184A93420A
:10168C0025D1184B1B68D3F800320133C3F3080380
:10169C00FB6000BF134B1B68D3F80422FB689A4213
:1016AC00F8D0104B1A680F4B1B68D3F800327968CE
:1016BC00C9B2D1540B4B1B68FA68C3F80022084B13
:1016CC001B68DA68064B1B6842F08002DA6000BFC8
:1016DC001437BD4680BC7047680A0020B009002052
:1016EC00EC0900207009002080B483B000AF786052
:1016FC007B68194A934211D1184B1B68D3F80032FE
:10170C009AB2164B1B68D3F804329BB2D31A9BB215
:10171C0003F500739BB2C3F3080317E07B68104A10
:10172C00934211D10F4B1B68D3F800329AB20D4B78
:10173C001B68D3F804329BB2D31A9BB203F5007327
:10174C009BB2C3F3080301E04FF0FF3318460C378C
:10175C00BD4680BC704700BF680A00207409002099
:10176C00EC090020E809002080B586B000AFF860D5
:10177C007A603B600B46FB7200BF3968F86800F07A
:10178C002FF90346012BF8D100237B6112E000BF37
:10179C003868FFF7A9FF0346002BF9D03868FFF72C
:1017AC00D9FE01467B697A681344CAB21A707B6908
:1017BC0001337B61FB7A7A699A42E8DB0123184694
:1017CC001837BD4680BD80B582B000AF78603960F7
:1017DC0007E07B685A1C7A601B7839681846FFF75B
:1017EC0019FF7B681B78002BF3D100BF00BF0837B3
:1017FC00BD4680BD80B500AF642332222B492C48F6
:10180C0003F035FA2B49294804F05DF90346002B07
:10181C0001D0012348E02849244804F054F9034638
:10182C00002B01D002233FE02449204804F04BF95F
:10183C000346002B01D0052336E021491B4804F058
:10184C0042F90346002B01D006232DE01D49174811
:10185C0004F039F90346002B01D0072324E01A4980
:10186C00124804F030F90346002B01D008231BE08A
:10187C0016490E4804F027F90346002B01D0032328
:10188C0012E01349094804F01EF90346002B01D05D
:10189C00042309E00F49054804F015F90346002B11
:1018AC0001D0092300E00023184680BD78090020F0
:1018BC00EC090020446900085469000864690008B8
:1018CC00786900088C690008A0690008B4690008F0
:1018DC00C0690008C869000880B588B000AFF8601E
:1018EC00B9607A600023FB61F868FEF733FC0346AD
:1018FC007B610023BB611FE0374B1968364B1B68BB
:10190C00D3F80422BB69B86803448A5C1A70324B62
:10191C001B68D3F804325A1C2F4B1B68C2F3080205
:10192C00C3F80422BB690133BB6100BF7868FFF7C1
:10193C00DBFE0346002BF9D07868FFF7C5FD0146A6
:10194C00FB69FA6813441B789942D5D128E0FB69EE
:10195C000133FB617868FFF7FDFD0146BB695A1C3A
:10196C00BA611A46BB681344CAB21A70FA697B6929
:10197C009A4201D101232BE0184B64221A6000BF5C
:10198C007868FFF7B1FE0346002B03D1134B1B689D
:10199C00002BF5D1114B1B68002B01D1002317E054
:1019AC007868FFF791FD0146FB69FA6813441B78D0
:1019BC009942CCD0FA697B699A4202D00023FB6130
:1019CC0099E7FA697B699A4201D1012300E000236F
:1019DC0018462037BD4680BD74090020AC09002094
:1019EC0080B586B000AF786039607868FEF7B2FBDE
:1019FC0003463B6100237B613868FFF775FE0346A5
:101A0C00002BF9D03868FFF7A5FD0346FB737B6903
:101A1C007A6813441B78FA7B9A4208D17B690133AC
:101A2C007B617A693B699A42E6D1012302E000238B
:101A3C007B61E1E718461837BD4680BD80B483B0A2
:101A4C0000AF7860094A7B6852F82330012B06D12D
:101A5C00064A7B68002142F82310012300E0002392
:101A6C0018460C37BD4680BC704700BF34090020B7
:101A7C0080B483B000AF7860094A7B6852F8233099
:101A8C00012B06D1064A7B68002142F82310012362
:101A9C0000E0002318460C37BD4680BC704700BFE1
:101AAC002809002080B483B000AF78607B68022BDB
:101ABC0008D07B68022B08DC7B68002B04D07B6889
:101ACC00012B02E000BF00E000BF054A7B6801214A
:101ADC0042F8231000BF0C37BD4680BC704700BFD6
:101AEC003409002080B582B000AF4C4B1B684C4AC7
:101AFC0013604C4B1B68494A1360484B5B68484A5F
:101B0C005360484B5B68454A5360444B9B68444A5E
:101B1C009360444B9B68414A93604021424801F0DA
:101B2C00C5FA03461A463F4B1A6080213F4801F024
:101B3C00BDFA03461A463B4B5A6020213A4801F045
:101B4C00B5FA03461A46374B9A6000237B605DE07A
:101B5C00324A7B6852F8232032497B6851F8233093
:101B6C009A4250D12D4A7B6852F823202C497B682D
:101B7C0051F823309A4246D1294A7B6852F82320E7
:101B8C002B497B6851F823309A4217D0244A7B6842
:101B9C0052F8232026497B6841F82320244A7B688D
:101BAC0052F82330002B2ED1224A7B684FF47A71E5
:101BBC0042F823107868FFF775FF24E01D4A7B6814
:101BCC0052F823305A1E1B497B6841F82320194ACE
:101BDC007B6852F82330002B15D1164A7B684FF4E2
:101BEC007A7142F82310124A7B6852F82330002B8A
:101BFC0009D1114A7B68012142F823100F4A7B68F6
:101C0C00002142F823107B6801337B607B68022B38
:101C1C009EDD00BF00BF0837BD4680BD2C000020F4
:101C2C003800002020000020000C01400010014072
:101C3C004400002050000020280900203409002016
:101C4C0080B586B002AF0346FB71FB7923F00F031E
:101C5C00FB73FB791B01BB73FB7B43F00C03DBB207
:101C6C003B72FB7B43F00803DBB27B72BB7B43F024
:101C7C000C03DBB2BB72BB7B43F00803DBB2FB7221
:101C8C0007F108026423009304234221034801F066
:101C9C00BBFB00BF1037BD4680BD00BFB00A0020A3
:101CAC0080B586B002AF0346FB71FB7923F00F03BE
:101CBC00FB73FB791B01BB73FB7B43F00D03DBB2A6
:101CCC003B72FB7B43F00903DBB27B72BB7B43F0C3
:101CDC000D03DBB2BB72BB7B43F00903DBB2FB72BF
:101CEC0007F108026423009304234221034801F006
:101CFC008BFB00BF1037BD4680BD00BFB00A002073
:101D0C0080B500AF3320FFF79BFF3220FFF798FF21
:101D1C00322000F063FE2820FFF792FF322000F003
:101D2C005DFE0120FFF78CFF322000F057FE0620ED
:101D3C00FFF786FF322000F051FE0C20FFF780FFEA
:101D4C00322000F04BFE0220FFF77AFF322000F029
:101D5C0045FE8020FFF774FF00BF80BD80B582B0C8
:101D6C0000AF786006E07B685A1C7A601B781846D6
:101D7C00FFF796FF7B681B78002BF4D100BF00BFE8
:101D8C000837BD4680BD80B500AF0120FFF758FF76
:101D9C0000BF80BD80B584B000AF786039607B68CF
:101DAC00012B08D17B68DAB23B68DBB21344DBB29F
:101DBC007F33FB7308E03B68DBB24033DBB25BB2D2
:101DCC0063F07F035BB2FB73FB7B1846FFF738FFB6
:101DDC0000BF1037BD4680BD80B500AF00F09CFD44
:101DEC0000F04CF800F05AF900F004F900F088F813
:101DFC0000F0B4F800F028F91B491C48FEF7B2F9C2
:101E0C001B4802F0B7FAFFF77BFFFFF7BCFF32204D
:101E1C0000F0E4FD00F0F8F901223221154800F041
:101E2C00BBFA01223221144800F0B6FAFEF764FC2A
:101E3C00034601223221184600F0AEFAFEF7B4FE3A
:101E4C00034601223221184600F0A6FAFEF754FC94
:101E5C00FEF7AAFEFFF7EEF8FFF744F900F0E0FA00
:101E6C00FEF7C4FBF2E700BFDC690008E869000874
:101E7C00040B0020F11000084110000880B590B050
:101E8C0000AF07F1180328220021184603F0FAFCD2
:101E9C003B1D00221A605A609A60DA601A610223B4
:101EAC00BB610123BB621023FB6202237B63002313
:101EBC00BB634FF46013FB6307F11803184601F082
:101ECC00FBFD0346002B01D000F099F90F237B603A
:101EDC000223BB600023FB604FF480633B61002353
:101EEC007B613B1D0221184602F066F80346002B6D
:101EFC0001D000F084F900BF4037BD4680BD000022
:101F0C0080B500AF124B134A1A60114B124A5A603B
:101F1C000F4B00229A600E4B0022DA600C4B4FF4F0
:101F2C0080421A610A4B00225A61094B00229A61C5
:101F3C00074B0022DA61064B00221A62044801F0BA
:101F4C001FF90346002B01D000F059F900BF80BDEA
:101F5C00B00A002000540040A086010080B586B075
:101F6C0000AF07F1080300221A605A609A60DA6029
:101F7C003B4600221A605A601D4B4FF080421A609B
:101F8C001B4B41F63F725A60194B00229A60184B5A
:101F9C000922DA60164B00221A61154B00229A6155
:101FAC00134802F097F90346002B01D000F027F9F3
:101FBC004FF48053BB6007F1080319460C4802F03C
:101FCC001BFB0346002B01D000F019F900233B60EA
:101FDC0000237B603B461946054802F0FDFC034696
:101FEC00002B01D000F00BF900BF1837BD4680BDA7
:101FFC00040B002080B500AF114B124A1A60104B35
:10200C004FF416525A600E4B00229A600C4B002271
:10201C00DA600B4B00221A61094B0C225A61084BF7
:10202C0000229A61064B0022DA61054802F044FD59
:10203C000346002B01D000F0E2F800BF80BD00BFCA
:10204C00EC0900200044004080B500AF114B124A4F
:10205C001A60104B4FF4E1325A600E4B00229A601A
:10206C000C4B0022DA600B4B00221A61094B0C223C
:10207C005A61084B00229A61064B0022DA6105482E
:10208C0002F01AFD0346002B01D000F0B8F800BF97
:10209C0080BD00BF680A00200048004080B588B0B1
:1020AC0000AF07F1100300221A605A609A60DA60E0
:1020BC00454B9B69444A43F010039361424B9B6927
:1020CC0003F01003FB60FB683F4B9B693E4A43F0F7
:1020DC00200393613C4B9B6903F02003BB60BB68FE
:1020EC00394B9B69384A43F004039361364B9B6927
:1020FC0003F004037B607B68334B9B69324A43F0EB
:10210C0008039361304B9B6903F008033B603B6809
:10211C00002240F2F2312D4800F0DFFF00224FF494
:10212C0082612B4800F0D9FF4FF400533B61294BDF
:10213C007B610023BB6107F110031946264800F0B0
:10214C0031FE40F2F2333B6101237B610023BB6122
:10215C000223FB6107F1100319461C4800F022FE14
:10216C004FF482633B6101237B610023BB6102233B
:10217C00FB6107F110031946154800F013FE80238C
:10218C003B6100237B610123BB6107F110031946FE
:10219C00114800F007FE60233B6100237B610123A3
:1021AC00BB6107F110031946094800F0FBFD002242
:1021BC000021282000F00DFD282000F026FD00BF96
:1021CC002037BD4680BD00BF001002400008014012
:1021DC00000C0140000011100010014080B582B0CD
:1021EC0000AF78607B681B68B3F1804F01D100F0C1
:1021FC0081F9FFF777FC00BF0837BD4680BD80B47E
:10220C0000AF72B600BFFEE798B500AF0C2003F02C
:10221C0029FB03461A460C4B1A600B4B1B68002B10
:10222C000FD0094B1C68282003F01CFB03462360CD
:10223C00054B1B6800225A60034B1B680A229A60EC
:10224C0000E000BF98BD00BF4C0B002080B485B0EF
:10225C0000AF7860396031E03B68013BDA0F134422
:10226C005B10FB607B681A68FB689B0013441B685F
:10227C005A687B6819683B689B000B441B685B6859
:10228C009A421FD97B681A68FB689B0013441B6831
:10229C00BB607B681A683B689B001A447B681968B2
:1022AC00FB689B000B4412681A607B681A683B68D9
:1022BC009B001344BA681A60FB683B603B68002BB8
:1022CC00CADC00E000BF00BF1437BD4680BC7047BD
:1022DC0080B586B000AF786039603B685B00013335
:1022EC003B613B6801335B00FB603B687B617B6857
:1022FC005B683A699A4211DA7B681A683B699B0001
:10230C0013441B685A687B6819687B699B000B44F3
:10231C001B685B689A4201D23B697B617B685B6896
:10232C00FA689A4211DA7B681A68FB689B001344BE
:10233C001B685A687B6819687B699B000B441B6897
:10234C005B689A4201D2FB687B617A693B689A426E
:10235C001DD07B681A683B689B0013441B68BB60EC
:10236C007B681A687B699B001A447B6819683B6818
:10237C009B000B4412681A607B681A687B699B008F
:10238C001344BA681A6079697868FFF7A1FF00BF37
:10239C001837BD4680BD000080B586B000AFF86030
:1023AC00B9607A601D4B1B689B68002B2FDD0C20DD
:1023BC0003F058FA03467B617B69002B29D07B69BB
:1023CC00FA681A607B69BA685A607B697A689A60A5
:1023DC00124B1B681A68114B1B685B689B001344FB
:1023EC007A691A600D4B1B685A6801325A600B4BA4
:1023FC001B689A68013A9A60084B1A68074B1B686D
:10240C005B68013B19461046FFF720FF02E000BF56
:10241C0000E000BF1837BD4680BD00BF4C0B00204C
:10242C0080B582B000AF3AE0254B1B681B681B6877
:10243C001B689847224B1B681B681B687B607B687A
:10244C009B68002B08D07B6818687B6899687B6850
:10245C009B681A46FFF7A0FF194B1B681A68184BAC
:10246C001B685B6803F18043013B9B001A44144BCF
:10247C001B681B6812681A60114B1B685A68013A7A
:10248C005A600F4B1B689A6801329A60786803F0A7
:10249C00F1F90B4B1B6800211846FFF719FF084B8D
:1024AC001B685B68002B06DD054B1B681B681B68F3
:1024BC005B68002BB8D000BF0837BD4680BD00BF9D
:1024CC004C0B002080B483B000AF786039600749B2
:1024DC007B683A6841F82320054A7B68002142F862
:1024EC00231000BF0C37BD4680BC7047780B002012
:1024FC00500B002080B483B000AF00237B601CE045
:10250C00124A7B6852F82330002B08DD0F4A7B6897
:10251C0052F823305A1E0D497B6841F823200B4A90
:10252C007B6852F82330002B04DC094A7B680121BC
:10253C0042F823107B6801337B607B68092BDFDD5D
:10254C0000BF00BF0C37BD4680BC7047780B002025
:10255C00500B002080B485B000AF154B9B69144A1A
:10256C0043F001039361124B9B6903F00103BB60C1
:10257C00BB680F4BDB690E4A43F08053D3610C4BA5
:10258C00DB6903F080537B607B680A4B5B68FB6004
:10259C00FB6823F0E063FB60FB6843F00073FB60B7
:1025AC00044AFB68536000BF1437BD4680BC7047BB
:1025BC00001002400000014080B58AB000AF786086
:1025CC0007F1140300221A605A609A60DA607B6883
:1025DC001B681D4A934232D11C4B9B691B4A43F02A
:1025EC0008039361194B9B6903F008033B613B693A
:1025FC004FF440737B611223BB6103233B6207F1F1
:10260C0014031946124800F0CDFB124B5B687B6239
:10261C007B6A43F0E0637B627B6A43F002037B627C
:10262C000C4A7B6A5360094BDB69084A43F400137C
:10263C00D361064BDB6903F40013FB60FB6800BF3E
:10264C002837BD4680BD00BF00540040001002403A
:10265C00000C01400000014080B584B000AF7860F0
:10266C007B681B68B3F1804F13D10C4BDB690B4AB1
:10267C0043F00103D361094BDB6903F00103FB60F9
:10268C00FB68002200211C2000F0A3FA1C2000F0A3
:10269C00BCFA00BF1037BD4680BD00BF0010024021
:1026AC0080B58CB000AF786007F11C0300221A6073
:1026BC005A609A60DA607B681B683E4A934224D168
:1026CC003D4BDB693C4A43F40033D3613A4BDB6945
:1026DC0003F40033BB61BB69374B9B69364A43F04B
:1026EC0004039361344B9B6903F004037B617B69A6
:1026FC000C23FB6102233B620223BB6207F11C0328
:10270C0019462E4800F04EFB50E07B681B682C4AA3
:10271C0093424BD1284BDB69274A43F48023D36186
:10272C00254BDB6903F480233B613B69224B9B699E
:10273C00214A43F0100393611F4B9B6903F0100374
:10274C00FB60FB684FF48063FB6102233B62032355
:10275C00BB6207F11C0319461A4800F023FB4FF427
:10276C000063FB6100233B6200237B6207F11C03C7
:10277C001946144800F016FB134B5B68FB62FB6AAE
:10278C0023F03003FB62FB6A43F0E063FB62FB6AFD
:10279C0043F01003FB620C4AFB6A536000220021D9
:1027AC00272000F016FA272000F02FFA00BF303750
:1027BC00BD4680BD004400400010024000080140AE
:1027CC0000480040001001400000014080B400AF00
:1027DC00FEE780B400AFFEE780B400AFFEE780B444
:1027EC0000AFFEE780B400AFFEE780B400AF00BFDF
:1027FC00BD4680BC704780B400AF00BFBD4680BCF6
:10280C00704780B400AF00BFBD4680BC704780B538
:10281C0000AF00F0C7F800BF80BD000080B500AF6E
:10282C00024801F0F9FD00BF80BD00BF040B002081
:10283C0080B500AF024802F0B1FA00BF80BD00BF06
:10284C00680A002080B500AF4FF4005000F076FC11
:10285C0000BF80BD80B586B000AF7860144A154BC0
:10286C00D31A7B617B693B61134B1B68002B02D134
:10287C00114B124A1A60104B1A687B6813443A6960
:10288C009A4207D202F0C4FF03460C221A604FF0A2
:10289C00FF3309E0084B1B68FB60074B1A687B6829
:1028AC001344054A1360FB6818461837BD4680BDB3
:1028BC00005000200004000050090020B80B00203C
:1028CC0080B400AF00BFBD4680BC7047FFF7F8FF77
:1028DC000B480C490C4A002302E0D458C450043372
:1028EC00C4188C42F9D3094A094C002301E0136047
:1028FC000432A242FBD302F091FFFFF76DFA70474E
:10290C0000000020E00000205C6A0008E0000020CD
:10291C00B40B0020FEE7000080B500AF084B1B682D
:10292C00074A43F010031360032000F047F900201E
:10293C0000F008F8FFF70EFE0023184680BD00BF1C
:10294C000020024080B582B000AF7860124B1A684C
:10295C00124B1B7819464FF47A73B3FBF1F3B2FBAD
:10296C00F3F3184600F05FF90346002B01D0012366
:10297C000EE07B680F2B0AD8002279684FF0FF30ED
:10298C0000F027F9064A7B681360002300E001235E
:10299C0018460837BD4680BD700000207800002026
:1029AC007400002080B400AF054B1B781A46054B11
:1029BC001B681344034A136000BFBD4680BC7047BC
:1029CC0078000020A00B002080B400AF024B1B68E5
:1029DC001846BD4680BC7047A00B002080B584B063
:1029EC0000AF7860FFF7F0FFB8607B68FB60FB68B6
:1029FC00B3F1FF3F05D00A4B1B781A46FB68134412
:102A0C00FB6000BFFFF7E0FF0246BB68D31AFA6811
:102A1C009A42F7D800BF00BF1037BD4680BD00BF3B
:102A2C007800002080B485B000AF78607B6803F03C
:102A3C000703FB600C4BDB68BB60BA684FF6FF0307
:102A4C001340BB60FB681A02BB68134343F0BF63BF
:102A5C0043F40033BB60044ABB68D36000BF143737
:102A6C00BD4680BC704700BF00ED00E080B400AFF5
:102A7C00044BDB681B0A03F007031846BD4680BCF9
:102A8C00704700BF00ED00E080B483B000AF034698
:102A9C00FB7197F90730002B0BDBFB7903F01F025E
:102AAC00064997F907305B09012000FA02F241F858
:102ABC00232000BF0C37BD4680BC704700E100E00E
:102ACC0080B483B000AF03463960FB7197F90730CF
:102ADC00002B0ADB3B68DAB20C4997F9073012017C
:102AEC00D2B20B4483F800230AE03B68DAB20849FF
:102AFC00FB7903F00F03043B1201D2B20B441A769C
:102B0C0000BF0C37BD4680BC704700BF00E100E041
:102B1C0000ED00E080B489B000AFF860B9607A6075
:102B2C00FB6803F00703FB61FB69C3F10703042B8C
:102B3C0028BF0423BB61FB690433062B02D9FB6954
:102B4C00033B00E000237B614FF0FF32BB6902FACC
:102B5C0003F3DA43BB681A407B699A404FF0FF31AC
:102B6C007B6901FA03F3D9437B680B401343184686
:102B7C002437BD4680BC704780B582B000AF78600A
:102B8C007B68013BB3F1807F01D301230FE00A4A3C
:102B9C007B68013B53600F214FF0FF30FFF790FF34
:102BAC00054B00229A60044B07221A60002318463A
:102BBC000837BD4680BD00BF10E000E080B582B094
:102BCC0000AF78607868FFF72DFF00BF0837BD466F
:102BDC0080BD80B586B000AF0346B9607A60FB73E8
:102BEC0000237B61FFF742FF78617A68B9687869E6
:102BFC00FFF790FF024697F90F3011461846FFF782
:102C0C005FFF00BF1837BD4680BD80B582B000AFF6
:102C1C000346FB7197F907301846FFF735FF00BFE5
:102C2C000837BD4680BD80B582B000AF786078684B
:102C3C00FFF7A2FF034618460837BD4680BD80B497
:102C4C0085B000AF78600023FB737B6893F821306C
:102C5C00DBB2022B08D07B6804229A637B680022CB
:102C6C0083F82020012320E07B681B681A687B68AE
:102C7C001B6822F00E021A607B681B681A687B685E
:102C8C001B6822F001021A607B681A6C7B68DB6B94
:102C9C00012101FA02F25A607B68012283F821209B
:102CAC007B68002283F82020FB7B18461437BD4636
:102CBC0080BC704780B584B000AF78600023FB7394
:102CCC007B6893F82130DBB2022B05D07B680422A1
:102CDC009A630123FB7351E07B681B681A687B685D
:102CEC001B6822F00E021A607B681B681A687B68EE
:102CFC001B6822F001021A607B681B68224A93420F
:102D0C0029D07B681B68214A934222D07B681B68C0
:102D1C001F4A93421AD07B681B681E4A934212D0FA
:102D2C007B681B681C4A93420AD07B681B681B4A51
:102D3C00934202D14FF480130EE04FF080730BE0FE
:102D4C004FF4803308E04FF4805305E04FF4807368
:102D5C0002E0102300E00123114A53607B6801223A
:102D6C0083F821207B68002283F820207B685B6B32
:102D7C00002B03D07B685B6B78689847FB7B18460D
:102D8C001037BD4680BD00BF080002401C00024049
:102D9C003000024044000240580002406C000240E7
:102DAC000000024080B48BB000AF78603960002323
:102DBC007B6200233B6269E101227B6A02FA03F326
:102DCC00FB613B681B68FA691340BB61BA69FB691C
:102DDC009A4240F058813B685B689A4A93425ED0B5
:102DEC00984A934275D8984A934258D0964A93423F
:102DFC006FD8964A934252D0944A934269D8944AD7
:102E0C0093424CD0924A934263D8924A934246D012
:102E1C00904A93425DD8122B2AD8122B59D801A272
:102E2C0052F823F0AB2E0008852E0008972E0008D0
:102E3C00D92E0008DF2E0008DF2E0008DF2E000838
:102E4C00DF2E0008DF2E0008DF2E0008DF2E000822
:102E5C00DF2E0008DF2E0008DF2E0008DF2E000812
:102E6C00DF2E0008DF2E00088D2E0008A12E000892
:102E7C00794A934213D02CE03B68DB683B6229E033
:102E8C003B68DB6804333B6224E03B68DB68083357
:102E9C003B621FE03B68DB680C333B621AE03B682B
:102EAC009B68002B02D104233B6213E03B689B68B8
:102EBC00012B05D108233B627B68FA691A6109E092
:102ECC0008233B627B68FA695A6103E000233B628A
:102EDC0000E000BFBB69FF2B01D87B6801E07B6879
:102EEC0004337B61BB69FF2B02D87B6A9B0002E039
:102EFC007B6A083B9B003B617B691A680F213B692D
:102F0C0001FA03F3DB431A40396A3B6901FA03F314
:102F1C001A437B691A603B685B6803F08053002B93
:102F2C0000F0B1804D4B9B694C4A43F00103936117
:102F3C004A4B9B6903F00103BB60BB68484A7B6A40
:102F4C009B08023352F82330FB607B6A03F00303C7
:102F5C009B000F2202FA03F3DB43FA681340FB6079
:102F6C007B68404A934213D07B683F4A93420DD012
:102F7C007B683E4A934207D07B683D4A934201D11D
:102F8C00032306E0042304E0022302E0012300E013
:102F9C0000237A6A02F0030292009340FA6813430A
:102FAC00FB602F497B6A9B080233FA6841F82320A7
:102FBC003B685B6803F48013002B06D02D4B9A689A
:102FCC002C49BB6913438B6006E02A4B9A68BB699A
:102FDC00DB43284913408B603B685B6803F40013A8
:102FEC00002B06D0234BDA682249BB691343CB6014
:102FFC0006E0204BDA68BB69DB431E491340CB600B
:10300C003B685B6803F40033002B06D0194B5A68FD
:10301C001849BB6913434B6006E0164B5A68BB69F1
:10302C00DB43144913404B603B685B6803F480330B
:10303C00002B21D00F4B1A680E49BB6913430B6050
:10304C0021E000BF000032100000311000002210FF
:10305C00000021100000121000001110001002409E
:10306C000000014000080140000C0140001001402C
:10307C0000140140000401400B4B1A68BB69DB4390
:10308C00094913400B607B6A01337B623B681A6809
:10309C007B6A22FA03F3002B7FF48EAE00BF00BFD5
:1030AC002C37BD4680BC70470004014080B485B00D
:1030BC0000AF78600B467B807B689A687B881340F6
:1030CC00002B02D00123FB7301E00023FB73FB7B7D
:1030DC0018461437BD4680BC704780B483B000AF2F
:1030EC0078600B467B8013467B707B78002B03D07B
:1030FC007A887B681A6103E07B881A047B681A6102
:10310C0000BF0C37BD4680BC704780B485B000AFA3
:10311C0078600B467B807B68DB68FB607A88FB6899
:10312C0013401A04FB68D9437B880B401A437B6815
:10313C001A6100BF1437BD4680BC704780B582B0A1
:10314C0000AF0346FB80084B5A69FB881340002BE9
:10315C0006D0054AFB885361FB88184600F006F838
:10316C0000BF0837BD4680BD0004014080B483B069
:10317C0000AF0346FB8000BF0C37BD4680BC7047D8
:10318C0080B584B000AF78607B68002B01D101233F
:10319C002BE17B6893F83D30DBB2002B06D17B68CA
:1031AC00002283F83C207868FFF706FA7B6824221B
:1031BC0083F83D207B681B681A687B681B6822F0CB
:1031CC0001021A607B681B681A687B681B6842F4F2
:1031DC0000421A607B681B681A687B681B6822F4C3
:1031EC0000421A6001F030F8F8607B685B68814A35
:1031FC00934207D8FB68804A934294BF0123002373
:10320C00DBB206E0FB687D4A934294BF01230023A6
:10321C00DBB2002B01D00123E7E0FB68784AA2FB6C
:10322C0003239B0CBB607B681B685B6823F03F012E
:10323C007B681B68BA680A435A607B681B681B6A08
:10324C0023F03F017B685B686A4A934202D8BB68F3
:10325C00013309E0BB684FF4967202FB03F3694A31
:10326C00A2FB03239B0901337A6812680B43136298
:10327C007B681B68DB6923F44F4222F0FF027B68FA
:10328C005B685C498B4219D8FB68591E7B685B688C
:10329C005B00B1FBF3F3591C40F6FC730B40002BA5
:1032AC000AD0FB68591E7B685B685B00B1FBF3F3CB
:1032BC000133C3F30B0351E004234FE07B689B689D
:1032CC00002B11D1FB68581E7B6859680B465B00BC
:1032DC000B44B0FBF3F30133C3F30B03002B0CBF14
:1032EC0001230023DBB212E0FB68581E7B6859688F
:1032FC000B469B000B4499000B44B0FBF3F30133DA
:10330C00C3F30B03002B0CBF01230023DBB2002BF8
:10331C0001D0012322E07B689B68002B0ED1FB6857
:10332C00581E7B6859680B465B000B44B0FBF3F3EB
:10333C000133C3F30B0343F400430FE0FB68581E47
:10334C007B6859680B469B000B4499000B44B0FBFF
:10335C00F3F30133C3F30B0343F440437968096877
:10336C001343CB617B681B681B6823F0C0017B682F
:10337C00DA697B681B6A1A437B681B680A431A600C
:10338C007B681B689B6823F4034323F0FF037A6874
:10339C0011697A68D26811437A6812680B4393609A
:1033AC007B681B68DB6823F0FF017B685A697B68CC
:1033BC009B691A437B681B680A43DA607B681B684D
:1033CC001A687B681B6842F001021A607B68002255
:1033DC001A647B68202283F83D207B6800221A63E4
:1033EC007B68002283F83E20002318461037BD4628
:1033FC0080BD00BFA08601007F841E00FF083D0039
:10340C0083DE1B43D34D621080B588B002AFF860E9
:10341C007A601A460B467B8113463B81FFF7D4FA40
:10342C007861FB6893F83D30DBB2202B40F0E080F4
:10343C007B690093192301227049F86800F064F944
:10344C000346002B01D00223D3E0FB6893F83C30F9
:10345C00012B01D10223CCE0FB68012283F83C2034
:10346C00FB681B681B6803F00103012B07D0FB688A
:10347C001B681A68FB681B6842F001021A60FB6843
:10348C001B681A68FB681B6822F400621A60FB68F0
:10349C00212283F83D20FB68102283F83E20FB6834
:1034AC0000221A64FB687A685A62FB683A895A856A
:1034BC00FB685B8D9AB2FB681A85FB68504ADA622E
:1034CC0079897B693A6AF86800F09CF80346002B0E
:1034DC0001D001238DE000233B61FB681B685B6915
:1034EC003B61FB681B689B693B613B6966E07A69E1
:1034FC00396AF86800F022FA0346002B0DD0FB68FD
:10350C001B6C042B07D1FB681B681A68FB681B68D3
:10351C0042F400721A6001236BE0FB685B6A1A7854
:10352C00FB681B681A61FB685B6A5A1CFB685A6271
:10353C00FB685B8D9BB2013B9AB2FB685A85FB68BA
:10354C001B8D013B9AB2FB681A85FB681B685B6993
:10355C0003F00403042B1BD1FB681B8D002B17D02D
:10356C00FB685B6A1A78FB681B681A61FB685B6A0C
:10357C005A1CFB685A62FB685B8D9BB2013B9AB28A
:10358C00FB685A85FB681B8D013B9AB2FB681A8558
:10359C007A69396AF86800F019FA0346002B0DD0E5
:1035AC00FB681B6C042B07D1FB681B681A68FB6853
:1035BC001B6842F400721A6001231AE0FB681B8D31
:1035CC00002B94D1FB681B681A68FB681B6842F4DB
:1035DC0000721A60FB68202283F83D20FB680022F1
:1035EC0083F83E20FB68002283F83C20002300E097
:1035FC00022318461837BD4680BD00BF02001000DC
:10360C000000FFFF80B588B002AFF8607A603B60C5
:10361C000B467B81FB68DB6A7B617B69082B06D0E0
:10362C007B69012B03D07B6913F5803F08D1FB68C4
:10363C001B681A68FB681B6842F480721A600BE006
:10364C00FB681B6B122B07D1FB681B681A68FB68A5
:10365C001B6842F480721A603B6800937B680022FE
:10366C004FF00111F86800F04FF80346002B0DD015
:10367C00FB681B681B6803F48073B3F5807F03D170
:10368C00FB684FF400721A64032335E0FB681B6976
:10369C00B3F5804F08D17B89DBB21A46FB681B68F7
:1036AC0002F0FE021A611BE07B89DB11DBB203F036
:1036BC000603DBB263F00F03DAB2FB681B681A6116
:1036CC003B687A680E49F86800F098F80346002BBE
:1036DC0001D0012310E07B89DAB2FB681B681A6108
:1036EC003B687A680749F86800F088F80346002BB5
:1036FC0001D0012300E0002318461837BD4680BDD9
:10370C00080001000200010080B584B000AFF86031
:10371C00B9603B601346FB7148E03B68B3F1FF3F77
:10372C0044D0FFF751F90246BB69D31A3A689A4262
:10373C0002D33B68002B39D1BB681B0CDBB2012BCD
:10374C000DD1FB681B685B69DA43BB6813409BB205
:10375C00002B0CBF01230023DBB21A460CE0FB68E4
:10376C001B689B69DA43BB6813409BB2002B0CBFF0
:10377C0001230023DBB21A46FB799A4216D1FB686F
:10378C0000221A63FB68202283F83D20FB6800228C
:10379C0083F83E20FB681B6C43F02002FB681A6424
:1037AC00FB68002283F83C20012323E0BB681B0C40
:1037BC00DBB2012B0DD1FB681B685B69DA43BB687C
:1037CC0013409BB2002B0CBF01230023DBB21A4623
:1037DC000CE0FB681B689B69DA43BB6813409BB227
:1037EC00002B0CBF01230023DBB21A46FB799A4253
:1037FC0093D0002318461037BD4680BD80B584B0E9
:10380C0000AFF860B9607A603B6071E0FB681B68E0
:10381C005B6903F48063B3F5806F23D1FB681B688D
:10382C001A68FB681B6842F400721A60FB681B681C
:10383C006FF480625A61FB6800221A63FB682022D5
:10384C0083F83D20FB68002283F83E20FB681B6C4C
:10385C0043F00402FB681A64FB68002283F83C20E6
:10386C00012367E07B68B3F1FF3F41D0FFF7ACF871
:10387C0002463B68D31A7A689A4202D37B68002BC3
:10388C0036D1BB681B0CDBB2012B0CD1FB681B685F
:10389C005B69DA43BB6813409BB2002B14BF012356
:1038AC000023DBB20BE0FB681B689B69DA43BB6847
:1038BC0013409BB2002B14BF01230023DBB2002B5F
:1038CC0016D0FB6800221A63FB68202283F83D2087
:1038DC00FB68002283F83E20FB681B6C43F020023F
:1038EC00FB681A64FB68002283F83C20012321E06A
:1038FC00BB681B0CDBB2012B0CD1FB681B685B6932
:10390C00DA43BB6813409BB2002B14BF0123002386
:10391C00DBB20BE0FB681B689B69DA43BB681340A6
:10392C009BB2002B14BF01230023DBB2002B7FF4CE
:10393C006DAF002318461037BD4680BD80B584B0EE
:10394C0000AFF860B9607A6034E0F86800F086F88F
:10395C000346002B01D0012334E0BB68B3F1FF3FD9
:10396C0028D0FFF731F802467B68D31ABA689A421E
:10397C0002D3BB68002B1DD1FB681B685B6903F08D
:10398C008003802B16D0FB6800221A63FB68202270
:10399C0083F83D20FB68002283F83E20FB681B6CFB
:1039AC0043F02002FB681A64FB68002283F83C2079
:1039BC00012307E0FB681B685B6903F08003802B25
:1039CC00C3D1002318461037BD4680BD80B584B0E6
:1039DC0000AFF860B9607A6034E0F86800F03EF847
:1039EC000346002B01D0012334E0BB68B3F1FF3F49
:1039FC0028D0FEF7E9FF02467B68D31ABA689A42D0
:103A0C0002D3BB68002B1DD1FB681B685B6903F0FC
:103A1C000403042B16D0FB6800221A63FB682022D7
:103A2C0083F83D20FB68002283F83E20FB681B6C6A
:103A3C0043F02002FB681A64FB68002283F83C20E8
:103A4C00012307E0FB681B685B6903F00403042B8C
:103A5C00C3D1002318461037BD4680BD80B483B057
:103A6C0000AF78607B681B685B6903F48063B3F517
:103A7C00806F1BD17B681B686FF480625A617B6816
:103A8C0000221A637B68202283F83D207B68002289
:103A9C0083F83E207B681B6C43F004027B681A643D
:103AAC007B68002283F83C20012300E000231846A9
:103ABC000C37BD4680BC704780B586B000AF7860CF
:103ACC007B68002B01D101236CE27B681B6803F03F
:103ADC000103002B00F08780924B5B6803F00C0312
:103AEC00042B0CD08F4B5B6803F00C03082B12D10A
:103AFC008C4B5B6803F48033B3F5803F0BD1894B5F
:103B0C001B6803F40033002B6CD07B685B68002BC4
:103B1C0068D1012346E27B685B68B3F5803F06D130
:103B2C00804B1B687F4A43F4803313602EE07B6824
:103B3C005B68002B0CD17B4B1B687A4A23F48033D7
:103B4C001360784B1B68774A23F4802313601DE0C5
:103B5C007B685B68B3F5A02F0CD1724B1B68714A64
:103B6C0043F4802313606F4B1B686E4A43F480331D
:103B7C0013600BE06B4B1B686A4A23F480331360B1
:103B8C00684B1B68674A23F4802313607B685B686F
:103B9C00002B13D0FEF718FF386108E0FEF714FF76
:103BAC0002463B69D31A642B01D90323FAE15D4B1E
:103BBC001B6803F40033002BF0D014E0FEF704FF75
:103BCC00386108E0FEF700FF02463B69D31A642B0C
:103BDC0001D90323E6E1534B1B6803F40033002B9C
:103BEC00F0D100E000BF7B681B6803F00203002BE0
:103BFC0063D04C4B5B6803F00C03002B0BD0494B90
:103C0C005B6803F00C03082B1CD1464B5B6803F478
:103C1C008033002B16D1434B1B6803F00203002B9F
:103C2C0005D07B681B69012B01D00123BAE13D4B08
:103C3C001B6823F0F8027B685B69DB00394913438E
:103C4C000B603AE07B681B69002B20D0364B0122BD
:103C5C001A60FEF7B9FE386108E0FEF7B5FE0246C1
:103C6C003B69D31A022B01D903239BE12D4B1B6813
:103C7C0003F00203002BF0D02A4B1B6823F0F80250
:103C8C007B685B69DB00274913430B6015E0264B0F
:103C9C0000221A60FEF798FE386108E0FEF794FEE9
:103CAC0002463B69D31A022B01D903237AE11D4B3F
:103CBC001B6803F00203002BF0D17B681B6803F038
:103CCC000803002B3AD07B689B69002B19D0174B4B
:103CDC0001221A60FEF778FE386108E0FEF774FEE8
:103CEC0002463B69D31A022B01D903235AE10D4B2F
:103CFC005B6A03F00203002BF0D0012000F0CCFA39
:103D0C001CE00A4B00221A60FEF75EFE38610FE0E1
:103D1C00FEF75AFE02463B69D31A022B08D903233D
:103D2C0040E100BF001002400000424280044242C9
:103D3C009E4B5B6A03F00203002BE9D17B681B6886
:103D4C0003F00403002B00F0A6800023FB75974BB7
:103D5C00DB6903F08053002B0DD1944BDB69934A44
:103D6C0043F08053D361914BDB6903F08053BB600C
:103D7C00BB680123FB758E4B1B6803F48073002B0F
:103D8C0018D18B4B1B688A4A43F480731360FEF77F
:103D9C001BFE386108E0FEF717FE02463B69D31A9A
:103DAC00642B01D90323FDE0814B1B6803F4807362
:103DBC00002BF0D07B68DB68012B06D17B4B1B6A98
:103DCC007A4A43F0010313622DE07B68DB68002B19
:103DDC000CD1764B1B6A754A23F001031362734BAB
:103DEC001B6A724A23F0040313621CE07B68DB68D5
:103DFC00052B0CD16D4B1B6A6C4A43F00403136208
:103E0C006A4B1B6A694A43F0010313620BE0674B70
:103E1C001B6A664A23F001031362644B1B6A634AF4
:103E2C0023F0040313627B68DB68002B15D0FEF7CC
:103E3C00CBFD38610AE0FEF7C7FD02463B69D31A99
:103E4C0041F28832934201D90323ABE0574B1B6AF2
:103E5C0003F00203002BEED014E0FEF7B5FD386141
:103E6C000AE0FEF7B1FD02463B69D31A41F28832F3
:103E7C00934201D9032395E04C4B1B6A03F00203D8
:103E8C00002BEED1FB7D012B05D1484BDB69474A5A
:103E9C0023F08053D3617B68DB69002B00F08180B9
:103EAC00424B5B6803F00C03082B61D07B68DB6929
:103EBC00022B46D13F4B00221A60FEF785FD38617C
:103ECC0008E0FEF781FD02463B69D31A022B01D9AB
:103EDC00032367E0354B1B6803F00073002BF0D114
:103EEC007B681B6AB3F5803F08D1304B5B6823F4C9
:103EFC0000327B689B682D4913434B602B4B5B68EE
:103F0C0023F474127B68196A7B685B6A0B4327493C
:103F1C0013434B60274B01221A60FEF755FD3861A5
:103F2C0008E0FEF751FD02463B69D31A022B01D97A
:103F3C00032337E01D4B1B6803F00073002BF0D0FC
:103F4C002FE01C4B00221A60FEF73EFD386108E0A2
:103F5C00FEF73AFD02463B69D31A022B01D9032323
:103F6C0020E0124B1B6803F00073002BF0D118E01B
:103F7C007B68DB69012B01D1012313E00B4B5B68E0
:103F8C00FB60FB6803F480327B681B6A9A4206D1A3
:103F9C00FB6803F470127B685B6A9A4201D00123C0
:103FAC0000E0002318461837BD4680BD00100240C3
:103FBC00007000406000424280B584B000AF786071
:103FCC0039607B68002B01D10123D0E06A4B1B6860
:103FDC0003F007033A689A4210D9674B1B6823F029
:103FEC00070265493B6813430B60634B1B6803F086
:103FFC0007033A689A4201D00123B8E07B681B683A
:10400C0003F00203002B20D07B681B6803F0040331
:10401C00002B05D0594B5B68584A43F4E06353605E
:10402C007B681B6803F00803002B05D0534B5B68BF
:10403C00524A43F460535360504B5B6823F0F002D8
:10404C007B689B684D4913434B607B681B6803F08E
:10405C000103002B40D07B685B68012B07D1474BD9
:10406C001B6803F40033002B15D101237FE07B6820
:10407C005B68022B07D1414B1B6803F00073002BCC
:10408C0009D1012373E03D4B1B6803F00203002BA5
:10409C0001D101236BE0394B5B6823F003027B6891
:1040AC005B68364913434B60FEF78EFCF8600AE000
:1040BC00FEF78AFC0246FB68D31A41F2883293421F
:1040CC0001D9032353E02D4B5B6803F00C027B6892
:1040DC005B689B009A42EBD1274B1B6803F00703EC
:1040EC003A689A4210D2244B1B6823F007022249EB
:1040FC003B6813430B60204B1B6803F007033A68C3
:10410C009A4201D0012332E07B681B6803F0040360
:10411C00002B08D0194B5B6823F4E0627B68DB68EA
:10412C00164913434B607B681B6803F00803002B94
:10413C0009D0124B5B6823F460527B681B69DB006F
:10414C000E4913434B6000F021F802460B4B5B68A1
:10415C001B0903F00F030A49CB5C22FA03F3094A4B
:10416C001360094B1B681846FEF7ECFB002318463E
:10417C001037BD4680BD00BF002002400010024039
:10418C00F4690008700000207400002080B487B02F
:10419C0000AF0023FB600023BB6000237B61002386
:1041AC007B6000233B611E4B5B68FB60FB6803F08C
:1041BC000C03042B02D0082B03D027E0194B3B61D6
:1041CC0027E0FB689B0C03F00F03174AD35C7B6062
:1041DC00FB6803F48033002B10D0114B5B685B0C35
:1041EC0003F00103114AD35CBB607B680D4A02FBF0
:1041FC0003F2BB68B2FBF3F37B6104E07B680C4A0F
:10420C0002FB03F37B617B693B6102E0054B3B6185
:10421C0000BF3B6918461C37BD4680BC704700BFC9
:10422C000010024000127A000C6A00081C6A000898
:10423C0000093D0080B400AF024B1B681846BD4618
:10424C0080BC70477000002080B500AFFFF7F2FF14
:10425C000246054B5B681B0A03F007030349CB5C62
:10426C0022FA03F3184680BD00100240046A0008CD
:10427C0080B500AFFFF7DEFF0246054B5B68DB0A3B
:10428C0003F007030349CB5C22FA03F3184680BD05
:10429C0000100240046A000880B485B000AF78605A
:1042AC000A4B1B680A4AA2FB03235B0A7A6802FBCF
:1042BC0003F3FB6000BFFB685A1EFA60002BF9D1B8
:1042CC0000BF00BF1437BD4680BC70477000002093
:1042DC00D34D621080B582B000AF78607B68002B44
:1042EC0001D1012341E07B6893F83D30DBB2002B18
:1042FC0006D17B68002283F83C207868FEF7ACF985
:10430C007B68022283F83D207B681A687B68043343
:10431C001946104600F05CFA7B68012283F84620AF
:10432C007B68012283F83E207B68012283F83F20C2
:10433C007B68012283F840207B68012283F84120AE
:10434C007B68012283F842207B68012283F843209A
:10435C007B68012283F844207B68012283F8452086
:10436C007B68012283F83D20002318460837BD46A0
:10437C0080BD000080B485B000AF78607B6893F896
:10438C003D30DBB2012B01D001233AE07B680222E5
:10439C0083F83D207B681B68DA687B681B6842F0F9
:1043AC000102DA607B681B68184A93420ED07B6866
:1043BC001B68B3F1804F09D07B681B68144A934289
:1043CC0004D07B681B68134A934211D17B681B682D
:1043DC009B6803F00703FB60FB68062B10D07B681F
:1043EC001B681A687B681B6842F001021A6007E0C0
:1043FC007B681B681A687B681B6842F001021A60B4
:10440C00002318461437BD4680BC7047002C014071
:10441C00000400400008004080B584B000AF786014
:10442C007B681B68DB68FB607B681B681B69BB6077
:10443C00BB6803F00203002B20D0FB6803F00203DF
:10444C00002B1BD07B681B686FF002021A617B6823
:10445C0001221A777B681B689B6903F00303002B0E
:10446C0003D0786800F098F905E0786800F08BF9D3
:10447C00786800F09AF97B6800221A77BB6803F021
:10448C000403002B20D0FB6803F00403002B1BD08B
:10449C007B681B686FF004021A617B6802221A7732
:1044AC007B681B689B6903F44073002B03D078680E
:1044BC0000F072F905E0786800F065F9786800F0B2
:1044CC0074F97B6800221A77BB6803F00803002B91
:1044DC0020D0FB6803F00803002B1BD07B681B6803
:1044EC006FF008021A617B6804221A777B681B68DC
:1044FC00DB6903F00303002B03D0786800F04CF960
:10450C0005E0786800F03FF9786800F04EF97B68B8
:10451C0000221A77BB6803F01003002B20D0FB6835
:10452C0003F01003002B1BD07B681B686FF010028C
:10453C001A617B6808221A777B681B68DB6903F4B5
:10454C004073002B03D0786800F026F905E07868FA
:10455C0000F019F9786800F028F97B6800221A77C6
:10456C00BB6803F00103002B0CD0FB6803F00103C4
:10457C00002B07D07B681B686FF001021A6178680A
:10458C00FDF72CFEBB6803F08003002B0CD0FB68FE
:10459C0003F08003002B07D07B681B686FF0800250
:1045AC001A61786800F07FFABB6803F04003002BB7
:1045BC000CD0FB6803F04003002B07D07B681B6812
:1045CC006FF040021A61786800F0F8F8BB6803F0ED
:1045DC002003002B0CD0FB6803F02003002B07D02A
:1045EC007B681B686FF020021A61786800F052FA41
:1045FC0000BF1037BD4680BD80B584B000AF786079
:10460C0039600023FB737B6893F83C30012B01D19C
:10461C000223B4E07B68012283F83C207B680222F1
:10462C0083F83D207B681B689B68BB60BB6823F0EC
:10463C007703BB60BB6823F47F43BB607B681B685C
:10464C00BA689A603B681B68B3F5005F3ED0B3F55F
:10465C00005F00F28780B3F5805F00F08680B3F5D1
:10466C00805F7FD8702B1AD0702B7BD8602B50D0EA
:10467C00602B77D8502B3CD0502B73D8402B58D074
:10468C00402B6FD8302B64D0302B6BD8202B60D0C4
:10469C00202B67D8002B5CD0102B5AD062E07B68A3
:1046AC0018683B6899683B685A683B68DB6800F09F
:1046BC0074F97B681B689B68BB60BB6843F077032D
:1046CC00BB607B681B68BA689A604FE07B681868AF
:1046DC003B6899683B685A683B68DB6800F05DF999
:1046EC007B681B689A687B681B6842F480429A60FE
:1046FC003CE07B6818683B6859683B68DB681A4685
:10470C0000F0D4F87B681B685021184600F02BF998
:10471C002CE07B6818683B6859683B68DB681A4674
:10472C0000F0F2F87B681B686021184600F01BF95A
:10473C001CE07B6818683B6859683B68DB681A4664
:10474C0000F0B4F87B681B684021184600F00BF9A8
:10475C000CE07B681A683B681B681946104600F031
:10476C0002F903E00123FB7300E000BF7B68012228
:10477C0083F83D207B68002283F83C20FB7B1846A5
:10478C001037BD4680BD80B483B000AF786000BFE9
:10479C000C37BD4680BC704780B483B000AF7860E6
:1047AC0000BF0C37BD4680BC704780B483B000AFEF
:1047BC00786000BF0C37BD4680BC704780B483B0B6
:1047CC0000AF786000BF0C37BD4680BC704700005E
:1047DC0080B485B000AF786039607B681B68FB6083
:1047EC007B682F4A93420BD07B68B3F1804F07D084
:1047FC007B682C4A934203D07B682B4A934208D1A6
:10480C00FB6823F07003FB603B685B68FA6813433A
:10481C00FB607B68224A93420BD07B68B3F1804FDC
:10482C0007D07B681F4A934203D07B681E4A934291
:10483C0008D1FB6823F44073FB603B68DB68FA68C3
:10484C001343FB60FB6823F080023B685B691343F6
:10485C00FB607B68FA681A603B689A687B68DA626E
:10486C003B681A687B689A627B680D4A934203D155
:10487C003B681A697B681A637B6801225A617B6802
:10488C001B6903F00103002B05D07B681B6923F027
:10489C0001027B681A6100BF1437BD4680BC7047AB
:1048AC00002C0140000400400008004080B487B098
:1048BC0000AFF860B9607A60FB681B6A7B61FB68CB
:1048CC001B6A23F00102FB681A62FB689B693B615F
:1048DC003B6923F0F0033B617B681B013A6913438E
:1048EC003B617B6923F00A037B617A69BB681343E4
:1048FC007B61FB683A699A61FB687A691A6200BF4E
:10490C001C37BD4680BC704780B487B000AFF860E0
:10491C00B9607A60FB681B6A7B61FB681B6A23F0D9
:10492C001002FB681A62FB689B693B613B6923F4CC
:10493C0070433B617B681B033A6913433B617B69A2
:10494C0023F0A0037B61BB681B017A6913437B6175
:10495C00FB683A699A61FB687A691A6200BF1C3776
:10496C00BD4680BC704780B485B000AF78603960BC
:10497C007B689B68FB60FB6823F07003FB603A6804
:10498C00FB68134343F00703FB607B68FA689A608B
:10499C0000BF1437BD4680BC704780B487B000AFF1
:1049AC00F860B9607A603B60FB689B687B617B69EF
:1049BC0023F47F437B613B681A027B681A43BB6814
:1049CC0013437A6913437B61FB687A699A6000BF71
:1049DC001C37BD4680BC704780B485B000AF786092
:1049EC0039607B6893F83C30012B01D1022346E0FF
:1049FC007B68012283F83C207B68022283F83D20EF
:104A0C007B681B685B68FB607B681B689B68BB6092
:104A1C00FB6823F07003FB603B681B68FA68134368
:104A2C00FB607B681B68FA685A607B681B68164AD7
:104A3C0093420ED07B681B68B3F1804F09D07B6822
:104A4C001B68124A934204D07B681B68104A93423D
:104A5C000CD1BB6823F08003BB603B685B68BA6811
:104A6C001343BB607B681B68BA689A607B68012241
:104A7C0083F83D207B68002283F83C2000231846F5
:104A8C001437BD4680BC7047002C01400004004028
:104A9C000008004080B483B000AF786000BF0C37D2
:104AAC00BD4680BC704780B483B000AF786000BF57
:104ABC000C37BD4680BC704780B582B000AF7860C3
:104ACC007B68002B01D1012342E07B6893F84130D5
:104ADC00DBB2002B06D17B68002283F8402078687B
:104AEC00FDF7DEFD7B68242283F841207B681B6880
:104AFC00DA687B681B6822F40052DA60786800F090
:104B0C00F9FD7B681B681A697B681B6822F490426C
:104B1C001A617B681B685A697B681B6822F02A0241
:104B2C005A617B681B68DA687B681B6842F4005228
:104B3C00DA607B6800225A647B68202283F841206B
:104B4C007B68202283F842207B6800225A63002372
:104B5C0018460837BD4680BD80B58AB002AFF860F4
:104B6C00B9603B601346FB8000237B61FB6893F8C4
:104B7C004130DBB2202B75D1BB68002B02D0FB88F7
:104B8C00002B01D101236EE0FB6800225A64FB6804
:104B9C00212283F84120FDF717FF7861FB68FA8822
:104BAC009A84FB68FA88DA84FB689B68B3F5805FAB
:104BBC0008D1FB681B69002B04D10023FB61BB6887
:104BCC00BB6103E0BB68FB610023BB612EE03B686B
:104BDC0000937B6900228021F86800F097FB034664
:104BEC00002B05D0FB68202283F8412003233AE0F8
:104BFC00FB69002B0BD1BB691B881A46FB681B6831
:104C0C00C2F308025A60BB690233BB6107E0FB695F
:104C1C001A78FB681B685A60FB690133FB61FB68FF
:104C2C00DB8C9BB2013B9AB2FB68DA84FB68DB8CB1
:104C3C009BB2002BCBD13B6800937B6900224021B7
:104C4C00F86800F063FB0346002B05D0FB682022BC
:104C5C0083F84120032306E0FB68202283F84120DF
:104C6C00002300E0022318462037BD4680BD80B5E6
:104C7C008AB002AFF860B9603B601346FB8000233A
:104C8C007B61FB6893F84230DBB2202B40F08180D3
:104C9C00BB68002B02D0FB88002B01D1012379E0EB
:104CAC00FB6800225A64FB68222283F84220FB68CE
:104CBC0000221A63FDF788FE7861FB68FA889A85F2
:104CCC00FB68FA88DA85FB689B68B3F5805F08D1CE
:104CDC00FB681B69002B04D10023FB61BB68BB6123
:104CEC0003E0BB68FB610023BB6147E03B680093BA
:104CFC007B6900222021F86800F008FB0346002B9A
:104D0C0005D0FB68202283F84220032342E0FB6994
:104D1C00002B0CD1FB681B685B689BB2C3F30803C8
:104D2C009AB2BB691A80BB690233BB611FE0FB6896
:104D3C009B68B3F5805F07D0FB689B68002B0AD19A
:104D4C00FB681B69002B06D1FB681B685B68DAB239
:104D5C00FB691A7008E0FB681B685B68DBB203F048
:104D6C007F03DAB2FB691A70FB690133FB61FB68E4
:104D7C00DB8D9BB2013B9AB2FB68DA85FB68DB8D5D
:104D8C009BB2002BB2D1FB68202283F84220002377
:104D9C0000E0022318462037BD4680BD80B5BAB06E
:104DAC0000AF78607B681B681B68C7F8E4307B68D1
:104DBC001B68DB68C7F8E0307B681B685B69C7F869
:104DCC00DC300023C7F8D8300023C7F8D430D7F82C
:104DDC00E43003F00F03C7F8D830D7F8D830002BE5
:104DEC000FD1D7F8E43003F02003002B09D0D7F80B
:104DFC00E03003F02003002B03D0786800F0BCFBFC
:104E0C005BE2D7F8D830002B00F0DE80D7F8DC302E
:104E1C0003F00103002B06D1D7F8E03003F49073B4
:104E2C00002B00F0D180D7F8E43003F00103002B05
:104E3C000BD0D7F8E03003F48073002B05D07B68DF
:104E4C005B6C43F001027B685A64D7F8E43003F0E2
:104E5C000403002B0BD0D7F8DC3003F00103002B3C
:104E6C0005D07B685B6C43F002027B685A64D7F810
:104E7C00E43003F00203002B0BD0D7F8DC3003F046
:104E8C000103002B05D07B685B6C43F004027B684C
:104E9C005A64D7F8E43003F00803002B11D0D7F88C
:104EAC00E03003F02003002B05D1D7F8DC3003F001
:104EBC000103002B05D07B685B6C43F008027B6818
:104ECC005A647B685B6C002B00F0F281D7F8E430FD
:104EDC0003F02003002B08D0D7F8E03003F02003B8
:104EEC00002B02D0786800F047FB7B681B685B697D
:104EFC0003F04003002B14BF01230023DBB2C7F8DF
:104F0C00D4307B685B6C03F00803002B03D1D7F81B
:104F1C00D430002B4FD0786800F051FA7B681B68B6
:104F2C005B6903F04003002B41D07B681B68143392
:104F3C00C7F89C30D7F89C3053E8003FC7F898303E
:104F4C00D7F8983023F04003C7F8D0307B681B6843
:104F5C001433D7F8D020C7F8A820C7F8A430D7F856
:104F6C00A410D7F8A82041E80023C7F8A030D7F840
:104F7C00A030002BD9D17B68DB6B002B13D07B6866
:104F8C00DB6B7E4A5A637B68DB6B1846FDF792FE3F
:104F9C000346002B16D07B68DB6B5B6B7A68D26B9D
:104FAC00104698470EE0786800F09CF90AE07868A3
:104FBC0000F098F906E0786800F094F97B6800221C
:104FCC005A6475E100BF73E17B681B6B012B40F0E9
:104FDC004F81D7F8E43003F01003002B00F0488128
:104FEC00D7F8E03003F01003002B00F041810023D0
:104FFC00BB607B681B681B68BB607B681B685B685D
:10500C00BB60BB687B681B685B6903F04003002BCB
:10501C0000F0B6807B68DB6B1B685B68A7F8BE3062
:10502C00B7F8BE30002B00F045817B689B8DB7F83C
:10503C00BE209A4280F03E817B68B7F8BE20DA85AC
:10504C007B68DB6B9B69202B00F088807B681B687E
:10505C000C33C7F88830D7F8883053E8003FC7F8CE
:10506C008430D7F8843023F48073C7F8B8307B6869
:10507C001B680C33D7F8B820C7F89420C7F89030C9
:10508C00D7F89010D7F8942041E80023C7F88C305B
:10509C00D7F88C30002BD9D17B681B6814337B6715
:1050AC007B6F53E8003F3B673B6F23F00103C7F86E
:1050BC00B4307B681B681433D7F8B420C7F8802051
:1050CC00FB67F96FD7F8802041E80023BB67BB6F03
:1050DC00002BE1D17B681B6814333B663B6E53E8B5
:1050EC00003FFB65FB6D23F04003C7F8B0307B68D5
:1050FC001B681433D7F8B020FA66BB66B96EFA6E2B
:10510C0041E800237B667B6E002BE3D17B68202279
:10511C0083F842207B6800221A637B681B680C337F
:10512C00FB64FB6C53E8003FBB64BB6C23F01003C7
:10513C00C7F8AC307B681B680C33D7F8AC20BA6569
:10514C007B65796DBA6D41E800233B653B6D002BA7
:10515C00E3D17B68DB6B1846FDF771FD7B6802229F
:10516C005A637B689A8D7B68DB8D9BB2D31A9BB29A
:10517C001946786800F0BFF89CE000BF8F54000817
:10518C007B689A8D7B68DB8D9BB2D31AA7F8CE30E7
:10519C007B68DB8D9BB2002B00F08E80B7F8CE3095
:1051AC00002B00F089807B681B680C33BB63BB6BE6
:1051BC0053E8003F7B637B6B23F49073C7F8C830D4
:1051CC007B681B680C33D7F8C8207A643B64396C55
:1051DC007A6C41E80023FB63FB6B002BE3D17B680B
:1051EC001B6814337B627B6A53E8003F3B623B6A6B
:1051FC0023F00103C7F8C4307B681B681433D7F85D
:10520C00C4203A63FB62F96A3A6B41E80023BB6243
:10521C00BB6A002BE3D17B68202283F842207B6899
:10522C0000221A637B681B680C333B613B6953E8B3
:10523C00003FFB60FB6823F01003C7F8C0307B68AD
:10524C001B680C33D7F8C020FA61BB61B969FA69E5
:10525C0041E800237B617B69002BE3D17B68022250
:10526C005A63B7F8CE301946786800F044F823E05A
:10527C00D7F8E43003F08003002B09D0D7F8E030E6
:10528C0003F08003002B03D0786800F00EF914E0D3
:10529C00D7F8E43003F04003002B0ED0D7F8E03001
:1052AC0003F04003002B08D0786800F04DF904E0BF
:1052BC0000BF02E000BF00E000BFE837BD4680BD84
:1052CC0080B483B000AF786000BF0C37BD4680BCA3
:1052DC00704780B483B000AF786000BF0C37BD4618
:1052EC0080BC704780B483B000AF786000BF0C37CF
:1052FC00BD4680BC704780B483B000AF78600B466D
:10530C007B8000BF0C37BD4680BC704780B586B033
:10531C0000AFF860B9603B601346FB713BE03B6A41
:10532C00B3F1FF3F37D0FDF74FFB02463B68D31A72
:10533C003A6A9A4202D33B6A002B01D103233AE02A
:10534C00FB681B68DB6803F00403002B23D0BB68ED
:10535C00802B20D0BB68402B1DD0FB681B681B68C2
:10536C0003F00803082B16D100237B61FB681B6834
:10537C001B687B61FB681B685B687B617B69F868F9
:10538C0000F01DF8FB6808225A64FB68002283F8C1
:10539C00402001230FE0FB681B681A68BB681340B0
:1053AC00BA689A420CBF01230023DBB21A46FB7980
:1053BC009A42B4D0002318461837BD4680BD80B43D
:1053CC0095B000AF78607B681B680C337B637B6B9C
:1053DC0053E8003F3B633B6B23F49073FB647B68A7
:1053EC001B680C33FA6C3A64FB63F96B3A6C41E85A
:1053FC000023BB63BB6B002BE5D17B681B681433AC
:10540C003B623B6A53E8003FFB61FB6923F00103FD
:10541C00BB647B681B681433BA6CFA62BB62B96AF2
:10542C00FA6A41E800237B627B6A002BE5D17B683A
:10543C001B6B012B19D17B681B680C33FB60FB6861
:10544C0053E8003FBB60BB6823F010037B647B68B0
:10545C001B680C337A6CBA617B617969BA6941E873
:10546C0000233B613B69002BE5D17B68202283F84C
:10547C0042207B6800221A6300BF5437BD4680BCB3
:10548C00704780B584B000AF78607B685B6AFB6066
:10549C00FB680022DA85FB680022DA84F868FFF7E3
:1054AC0021FF00BF1037BD4680BD80B485B000AF72
:1054BC0078607B6893F84130DBB2212B3ED17B685E
:1054CC009B68B3F5805F14D17B681B69002B10D1EE
:1054DC007B681B6AFB60FB681B881A467B681B6831
:1054EC00C2F308025A607B681B6A9A1C7B681A62BA
:1054FC0008E07B681B6A591C7A6811621A787B6811
:10550C001B685A607B68DB8C9BB2013B9BB27A6850
:10551C001946D184002B0FD17B681B68DA687B6835
:10552C001B6822F08002DA607B681B68DA687B6893
:10553C001B6842F04002DA60002300E002231846A8
:10554C001437BD4680BC704780B582B000AF786020
:10555C007B681B68DA687B681B6822F04002DA60A3
:10556C007B68202283F841207868FFF7A9FE00238E
:10557C0018460837BD4680BD80B58CB000AF78604A
:10558C007B6893F84230DBB2222B40F0AE807B6814
:10559C009B68B3F5805F17D17B681B69002B13D117
:1055AC000023FB627B689B6ABB627B681B685B6841
:1055BC009BB2C3F308039AB2BB6A1A807B689B6ADE
:1055CC009A1C7B689A6226E07B689B6AFB620023CC
:1055DC00BB627B689B68B3F5805F07D07B689B6878
:1055EC00002B0AD17B681B69002B06D17B681B68DA
:1055FC005B68DAB2FB6A1A7008E07B681B685B6850
:10560C00DBB203F07F03DAB2FB6A1A707B689B6A29
:10561C005A1C7B689A627B68DB8D9BB2013B9BB208
:10562C007A681946D185002B5DD17B681B68DA68D6
:10563C007B681B6822F02002DA607B681B68DA68E2
:10564C007B681B6822F48072DA607B681B685A697D
:10565C007B681B6822F001025A617B68202283F868
:10566C0042207B6800225A637B681B6B012B35D16F
:10567C007B6800221A637B681B680C337B617B6937
:10568C0053E8003F3B613B6923F010037B627B686E
:10569C001B680C337A6A3A62FB61F9693A6A41E831
:1056AC000023BB61BB69002BE5D17B681B681B68C1
:1056BC0003F01003102B0AD10023FB607B681B68DE
:1056CC001B68FB607B681B685B68FB60FB687B6826
:1056DC009B8D19467868FFF70EFE02E07868FFF79D
:1056EC00F8FD002302E0002300E0022318463037C7
:1056FC00BD4680BD80B584B000AF78607B681B6808
:10570C001B6923F440517B68DA687B681B680A4389
:10571C001A617B689A687B681B691A437B685B69B2
:10572C001343BB607B681B68DB6823F4B05323F026
:10573C000C037A681268B9680B43D3607B681B68EA
:10574C005B6923F440717B689A697B681B680A4328
:10575C005A617B681B682C4A934203D1FEF788FD83
:10576C00F86002E0FEF770FDF860FA6813469B00E3
:10577C0013449A001A447B685B689B00B2FBF3F3FA
:10578C00224AA2FB03235B091901FA6813469B000A
:10579C0013449A001A447B685B689B00B2FBF3F2DB
:1057AC001A4BA3FB02035B09642000FB03F3D31A1F
:1057BC001B013233154AA2FB03235B0903F0F003F0
:1057CC001944FA6813469B0013449A001A447B68E8
:1057DC005B689B00B2FBF3F20C4BA3FB02035B096F
:1057EC00642000FB03F3D31A1B013233074AA2FBDC
:1057FC0003235B0903F00F027B681B680A449A6061
:10580C0000BF1037BD4680BD003801401F85EB51ED
:10581C00014B1868704700BF7C00002070B5002653
:10582C000C4D0D4C641BA410A64209D100F0C6FC13
:10583C0000260A4D0A4C641BA410A64205D170BD6B
:10584C0055F8043B98470136EEE755F8043B98476A
:10585C000136F2E7546A0008546A0008546A0008DA
:10586C00586A0008024B0146186800F05FB800BF88
:10587C007C000020024B0146186800F00BB800BFFA
:10588C007C00002003460244934200D1704703F889
:10589C00011BF9E738B50546002943D051F8043C03
:1058AC000C1F002BB8BFE41800F024F91E4A136833
:1058BC00104633B9636014602846BDE8384000F0E8
:1058CC001FB9A3420AD921686218934201BF1A6812
:1058DC005B685218226063600460EDE71A465B68EF
:1058EC000BB1A342FAD911685018A0420BD1206811
:1058FC000144501883421160DED118685B68014482
:10590C0011605360D8E702D90C232B60D4E72068D0
:10591C0021188B4201BF19685B680918216063600C
:10592C005460C9E738BD00BF54090020F8B5CD1C40
:10593C0025F0030508350C2D38BF0C25002D064627
:10594C0001DBA94203D90C2333600020F8BD00F021
:10595C00D1F821490A6814469CB9204F3B6823B9F9
:10596C002146304600F03CF838602946304600F0BD
:10597C0037F8431C23D10C233046336000F0C0F8B9
:10598C00E3E723685B1B17D40B2B03D923601C4460
:10599C00256004E06368A2420CBF0B605360304684
:1059AC0000F0AEF804F10B00231D20F00700C21A22
:1059BC00CCD01B1AA350C9E722466468CCE7C41CA0
:1059CC0024F00304A042E3D0211A304600F008F87A
:1059DC000130DDD1CFE700BF540900205809002069
:1059EC0038B50023054D044608462B60FCF732FF02
:1059FC00431C02D12B6803B1236038BDA40B0020DB
:105A0C000CB430B5174B0C1E1D689DB008DA8B23F7
:105A1C004FF0FF302B601DB0BDE8304002B0704736
:105A2C004FF40273ADF814300CBF234604F1FF336E
:105A3C00049307934FF6FF7302900690ADF816305F
:105A4C00284621AB209A02A9019300F0BBF8431C15
:105A5C00BCBF8B232B60002CDDD00022029B1A7064
:105A6C00D9E700BF7C0000200EB46FF0004100B5F8
:105A7C009CB01DAB0290069007910491084809490F
:105A8C0053F8042B0591006802A9019300F09AF8D1
:105A9C000022029B1A701CB05DF804EB03B0704737
:105AAC007C0000200802FFFF024610B51478134654
:105ABC000132002CFAD1013B11F8012B03F8012F14
:105ACC00002AF9D110BDF0B50C7864B103461A78F0
